:020000040800F2
:1000000000020020E10400087D0400083904000813
:100010008D0400089D040008AD04000800000000E5
:100020000000000000000000000000001D040008A7
:10003000BD0400080000000001040008CD04000811
:10004000AD010008AD010008AD010008AD010008D8
:10005000AD010008AD010008890A0008890A0008FE
:10006000890A0008890A0008890A0008AD01000809
:10007000AD010008AD010008AD010008AD010008A8
:10008000AD010008AD010008AD010008AD01000898
:10009000AD010008AD010008AD010008890A0008A3
:1000A000AD010008AD010008AD010008AD01000878
:1000B000BD120008AD010008AD010008AD01000847
:1000C000AD010008AD010008AD010008AD01000858
:1000D000AD010008AD010008AD0100089D08000851
:1000E000890A0008AD0100080000000000000000BF
:1000F0000000000000000000000000000000000000
:1001000000000000AD010008C3120008AD010008A6
:10011000AD010008A3080008AD010008AD0100080A
:10012000AD010008AD010008AD010008AD010008F7
:10013000AD010008AD010008AD010008AD010008E7
:10014000AD010008AD010008AD010008AD010008D7
:10015000AD010008AD010008AD010008AD010008C7
:10016000AD010008AD010008AD010008AD010008B7
:10017000AD010008AD010008AD010008000000005D
:10018000AD010008AD010008AD010008AD01000897
:10019000AD010008AD010008AD010008AD01000887
:1001A000AD010008AD010008AD01000800F08EB9F6
:1001B00000F09EBA7047000070B50C46064600F08D
:1001C00087FA094B094A1D682C44944202D8084A10
:1001D000944207D20C2333604FF0FF3500F080FAD1
:1001E000284670BD1C60F9E70002002000000520D1
:1001F000600B00201946104600F086BA19461046DA
:1002000000F08ABA132303604FF0FF3070471323C6
:1002100003604FF0FF307047132303604FF0FF304F
:10022000704702294FF0000303608CBF00200120BB
:10023000704700001349144B10B50C68002084422D
:1002400094FAA4F1B1FA81F1104C186008BF4FF094
:10025000FF310F4B54F821101A680968A1F1080406
:1002600094420ED022B11079092804BF0A201071DF
:10027000092201F8042C074A31F9021C11801C6084
:10028000012010BD88020020940200209C02002062
:10029000900200208C020020082930B503791AD979
:1002A000082B14D842791A4B53F8225000F1080455
:1002B0007DB12D68856053F822502C6043F82240B0
:1002C000144A44790123A340146823431360017145
:1002D00030BD8460F2E7082BF9D945790C4B53F80F
:1002E00025203AB11468A2420BBF0022246843F8CB
:1002F00025201460427953F82230002BE7D1054CB9
:10030000012303FA02F2236823EA02032360DEE7F3
:100310009C0200208802002008B5094B1B681A794E
:10032000082A02D95B79834205D900F0DCF918B1BB
:10033000044B01221A6008BDBDE8084000F058B81F
:10034000900200209402002008B500F0C1F9094B8A
:10035000094A1B88094D1BB2002442F82340084A71
:10036000286813682146013B1360FFF795FF2C6056
:1003700000F03AF88C020020DC02002090020020FD
:1003800098020020134423F0030310B54FF0773296
:100390001C1F43F8042C620742BF4FF0883243F819
:1003A000082CA3F108044FF0807344E902030D4BBD
:1003B00044F80C3C0022032344E905322246012381
:1003C000022044E9073042F8201D0B2342F8043D87
:1003D000013B032BFAD120466FF0020340F8443D65
:1003E00010BD00BF4903000800F076F901DFFEE709
:1003F000024A536843F080535360704700ED00E0B9
:10040000EFF3098020E9F00F40F804ED0249096894
:10041000086000F003F8000090020020FFF70AFFD8
:1004200004480068016801C9B1E8F00F81F3098848
:1004300000470000900200200D4B0E4A0E4968460E
:10044000904203D8984201D9002102E009468D4626
:10045000012104207246024202D1EFF3088001E03C
:10046000EFF309802DE9F00F6B4600F06FF800BF45
:1004700058010020000005200002002008B50249B4
:10048000042000F011FD00BF1D27000808B5024937
:10049000062000F009FD00BF0A27000808B5024940
:1004A000072000F001FD00BFE424000808B5024960
:1004B000082000F0F9FC00BF2927000808B5024910
:1004C000092000F0F1FC00BFF624000808B502493D
:1004D0000A2000F0E9FC00BF0825000870477047BB
:1004E00008B5FFF7FBFF6A46114B1249934213D33D
:1004F000114A124B12498B4211D3124B124A00215E
:10050000934211D3FFF7EBFF00F0B4FC01F09EF82B
:10051000BDE8084000F0FABC43F8041BE6E752F8D7
:10052000040F43F8040BE6E743F8041BE8E700BFB9
:1005300000000020FEE7FEE714290008000200206A
:100540008802002088020020600B00202DE9F04F77
:100550009A46494B8FB093469A6B03925A6B04921A
:100560009F6ADA6A05921A6BDB6B0793434B06921C
:100570001A68434B9A420446884602D0414801F02B
:10058000FDF8B8F1000F4ED03F4801F0F7F8002514
:100590002E463E4801F0F2F839463D4801F07AF81F
:1005A00005993C4801F076F806993B4801F072F84D
:1005B00007993A4801F06EF83A0403D50399384890
:1005C00001F068F83B0603D50499364801F062F85B
:1005D000354801F0D3F85946344801F05BF8B8F1DA
:1005E000000F1BD1324801F0C9F83146314801F003
:1005F00051F86946304BC91A03D549422F4801F0DA
:1006000049F820468268C36801698C4641698E4674
:10061000AD46514691E8F00F4168006801BE284997
:10062000052000F041FCD4E90230D4E90669D4E9A0
:10063000001208902069099060690A9019F4007FFF
:1006400020480B91CDE90C230CBF04F1200504F1E7
:10065000240501F093F8089B00930B991A48DDE9F3
:100660000C2301F017F8CDF800903346DDE90912AC
:10067000164801F00FF88CE700ED00E000000020C4
:10068000FEE7FEE7162500082C250008F1250008E6
:10069000FA2500080A2600081A2600082A2600085B
:1006A0003A2600084A2600085A2600085F26000855
:1006B00071260008A226000858010020CA2600085A
:1006C000F72600085B25000876250008B3250008FA
:1006D000EFF3108072B6704762B6EFF31080704788
:1006E00080F310887047EFF30580C0B270470000B8
:1006F000034B044A4FF4E131002000F071B800BF11
:1007000004020020A51000080A460146014800F036
:10071000D4BC00BF0402002010B50A460C460146B6
:10072000002000F029F8204610BD000038B5142341
:100730000E4A4343D458E569AA0608D50C4BA18C50
:1007400003EBC002C9B253F83030506898472B070A
:1007500042BF236A43F008032362064B1B681BB1A8
:10076000BDE83840FFF744BE38BD00BF4027000851
:10077000A003002094020020012810B50AD81423F9
:1007800058430A4B1B580A44914207D1DA69520672
:10079000FCD510BD0649032000F086FB11F8010BC3
:1007A000DC692406FCD580B21885EDE740270008F7
:1007B00068270008012808B503D90749032000F07D
:1007C00073FB064B142202FB0030BDE80840416871
:1007D000807C00F0AFBC00BF6827000840270008FD
:1007E00001282DE9F84304460E46174603D9274948
:1007F000032000F059FBDFF8A080254A142505FBF3
:10080000008542F83070D5F80C9002EBC00201214F
:100810005360484600F048F8484600F021F9697CEA
:10082000484600F0DBF84FB1D5F808900021484663
:1008300000F03AF8297C484600F0D0F82046FFF74F
:10084000B9FF14235C4308EB040558F80440A87C66
:10085000002323606360A36000F050FCB0FBF6F05F
:1008600080B2E0607FB1EB7C01215AB203F01F033C
:1008700001FA03F35209074941F822302D2323607E
:100880000020BDE8F8830923F9E700BF68270008C6
:10089000A003002000E100E0402700080020FFF74F
:1008A00045BF0120FFF742BFF8B50D460127C0F351
:1008B000832120F00F0400F00F0607FA01F1032056
:1008C00000F038FC06FA07FC0323226803FA0CF355
:1008D000D84302402260226805F0030101FA0CF1BE
:1008E00011432160E2681040E060E168C5F38102D5
:1008F00002FA0CF20A43E2606268B74022EA070794
:1009000067606268C5F30015B54015436560A2686D
:100910001343A3600020F8BD2DE9F04100F00F045F
:1009200015462B4A42F8343002EBC402069B536052
:10093000884601210646C0F38327084600F0FAFBEB
:1009400041463046FFF7B0FF042C224B37DCA11D97
:1009500001228A401A60204B0122986802FA04F1B1
:10096000C94308409860D3F808C005EA0200A040D7
:1009700040EA0C009860D8680140D960D540D96839
:10098000A54004F00C0404F1804404F580340D43C8
:10099000DD6006F00301A06889000F258D4020EA84
:1009A0000500A060A0688F40074302FA06F6A76022
:1009B0005E611A6816431E600020BDE8F081092CB4
:1009C00002DC4FF40002C5E74FF480725A60C2E7C0
:1009D000B003002000E100E00004014020F00F031C
:1009E000F0B500F00F041D6867000326BE4025EA3D
:1009F00006051D601D680222072C02FA07F242EA72
:100A0000050294BF002401241A6003EB840300F064
:100A100007001A6A80000F24844022EA04021A6246
:100A20001A6A01FA00F010431862F0BD044B00F09E
:100A30000F011A680120884010431860704700BFFA
:100A400000040140054900F00F000B68012202FA82
:100A500000F023EA00030B60704700BF0004014070
:100A600020F00F02012300F00F0003FA00F0906164
:100A7000704720F00F0200F00F001030012303FA3E
:100A800000F09061704700002DE9F0410F4D104FCC
:100A90006E692A68002416404FF0010808FA04F332
:100AA000334206D06B6107EBC40357F83420586813
:100AB00090470134102CF1D1064B1B681BB1BDE8E7
:100AC000F041FFF795BCBDE8F08100BF0004014094
:100AD000B003002094020020002000F09DBB000025
:100AE000034B1968024611B9084600F075BB704700
:100AF0003004002010B5094A136843B19C6881682E
:100B00008C4207D303D15C6841688C4202D90360F0
:100B1000106010BD1A461B68EFE700BF38040020C4
:100B2000F0B51E4E1E4D33681E4C013333601E4B14
:100B300000201A6818602B68226019460746B446E0
:100B400021B1DCF800E08E68764513D900B1296048
:100B50007FB100213960FAB183B151685868814290
:100B60008CBF19461146084612681B6842B90360DB
:100B70002160F0BD0F4601200968E1E71146F2E768
:100B80000BB90260F4E755685E68B5428CBF1D463C
:100B9000154605602846E7E72360EAE734040020AD
:100BA00038040020400400203C0400202DE9F041DE
:100BB0002B4F2C4C01233B60236893B9FFF7B0FF08
:100BC000FFF78AFF0130FBD000254FF000082368B3
:100BD0005BB9FFF781FF854222D9FFF7A1FF00250E
:100BE000F5E7FFF779FF0546EFE75E68FFF774FF6B
:100BF000854204D8864202D9361A132EE9D82368D2
:100C00005E68FFF769FF854201D88642F7D82368FE
:100C10001A682260C3E90188D3E903209047D6E728
:100C200023686BB15E68FFF757FF143E14308642AD
:100C3000CDD300233B603046BDE8F041FFF750BF05
:100C4000FFF74AFF85420646C7D810F1150F04D9B1
:100C5000FFF742FF8642FBD9BFE74FF0FF36E8E7D8
:100C60003004002040040020144A1368834210D14D
:100C70001B6813601BB158681438FFF731BF4FF081
:100C8000FF30FAE79842196801D1116070471A469F
:100C90000B46002BF6D10A4A13681BB9094A1368A0
:100CA00033B9704798421968EFD01A460B46F4E7FB
:100CB00098421968E9D01A460B46F1E74004002033
:100CC0003C0400203804002008B500231846054ADB
:100CD000054900F0B3FA4FF0FF30BDE80840FFF7D8
:100CE000FFBE00BFAD0B000840420F00F8B5044640
:100CF0000D46FFF7F1FE002385420746236011D31E
:100D0000A5F11E0383420DD21E35FFF7E5FE854295
:100D1000FBD3FFF7E1FE8542FBD8D4E903309847C7
:100D20000020F8BDFFF7D4FC636806460BB9A36842
:100D300013B12046FFF798FF194B65601A681B68CE
:100D4000BD4238BF0132A260A2689A4206D920464D
:100D5000FFF7D0FE3046FFF7C3FCE1E7BD4210D9F4
:100D6000104B1A68194612B15068854215D222609C
:100D70001C600B689C42EDD1A5F11400FFF7B0FE9A
:100D8000E8E7094A136813B159688D4202D223601B
:100D90001460DFE71A461B68F5E713461268E2E7BE
:100DA00034040020400400203C04002038B50446F0
:100DB000FFF78EFC636805460BB9A36813B12046A4
:100DC000FFF752FF2846BDE83840FFF789BCC368EB
:100DD00070B504460D46C3B1FFF7E8FF1D2D0CD8D2
:100DE000FFF77AFE0646FFF777FE801B8542FAD8AA
:100DF000D4E90330BDE870401847FFF76DFE2918AD
:100E00002046BDE87040FFF771BF70BD2DE9F04787
:100E100004460E4615461AB9BDE8F047FFF7D7BF9E
:100E2000FFF756FC636807460BB9A36813B1204669
:100E3000FFF71AFFDFF830A0FFF74EFEDAF8008068
:100E40008146FFF749FE8145F6D83618454428BF4C
:100E5000013520466660A560FFF74CFE3846BDE8C8
:100E6000F047FFF73DBC00BF3404002008B5FFF792
:100E70002FFCFEE708B500F032F901210648FFF724
:100E800013FD01210548FFF70FFD01210448BDE8CE
:100E90000840FFF709BD00BF0708004807040048E5
:100EA0000E0400487047000008B50C4B1A680C4649
:100EB00072B9012203281A6003D17146084800F074
:100EC000E9FB2146074800F0E5FB074800F0E2FB9C
:100ED000FFF7FEFBFFF7E6FFFFF7C8FF4404002023
:100EE0007A2700087E2700089A27000808B500F036
:100EF00045FA034800F0CEFB00F016FA002008BDCA
:100F0000A827000808B500F0BBF8FCE71FB5FFF7FD
:100F1000DFFB0E4B0E481B68029300240D4B009321
:100F20000F220C234FF48071019400F033F80A4B28
:100F30000A481B68CDE90143094B009307220C23A3
:100F40004FF4C06100F026F8FFF74EFA18020020B7
:100F500048040020050F00081C020020480500205E
:100F6000ED0E000838B50B79082B03D9084903208A
:100F7000FFF79AFF4C7901F10802036813B98B60FF
:100F8000026038BD13F8035CAC42F8D31846F4E7AE
:100F9000682700080F2A2DE9F74F05468B46914632
:100FA0009A4633D810F003031BBFC3F10403ED18B6
:100FB0000B46CB1A303B23F003031AF0080F05EB66
:100FC000030419D12D6003E012600432A242FBD366
:100FD0000193FFF77DFB2849019B8046012251F8D0
:100FE000226017B2AEB10132212AF8D14046FFF794
:100FF00077FB6FF08A073AE02A46E7E701212046AF
:10100000FFF74AF94046FFF76BFB30E06FF015073A
:101010002DE041F822402A46E780DDE90C01FFF788
:10102000B1F90E9B154AA3624FF0FF33C4E90736AE
:101030001368206001331AF0010F6562C4F82CB008
:1010400084F805902671C4E90266C4E90466A661C5
:101050001360D3D10A212046FFF71EF91AF0040FBE
:10106000D0D14046FFF73CFB4846FFF755F93846DC
:1010700003B0BDE8F08F00BFDC0200209802002022
:10108000074A08B5136923F004031361FFF720FB37
:10109000BFF34F8F30BFBDE80840FFF721BB00BF53
:1010A00000ED00E038B5054600F02AF9044605F1E8
:1010B000100000F095F9204638BDF8B504460D46FD
:1010C000164600F1100732462946204600F005F981
:1010D00000B1F8BD0121384600F052F9F3E708B538
:1010E00000F0A4F94FF08051002000F023F800F048
:1010F000C3F9BDE8084000F016B90000034A044BEC
:1011000000280CBF10461846704700BF002D310163
:10111000005A6202044A054B002818BF1346044ACD
:10112000105C5843704700BF005A6202002D310125
:10113000FB270008042808D8DFE800F0030A0F1492
:1011400019000D4A936D19439165BFF34F8F704796
:10115000094A136E19431166F7E7074A936C19435E
:101160009164F2E7044AD36C1943D164EDE7024A73
:10117000136D19431165E8E7001002402DE9F843AB
:10118000124ADFF8508003010746D5582E69EB68F4
:1011900000241E4008EBC0090223A340334209D0BB
:1011A000EA68D9F8040022EA0303EB60214658F804
:1011B000373098470134042CEED1054B1B681BB126
:1011C000BDE8F843FFF714B9BDE8F883002800082C
:1011D00094020020480B0020032910B516DC0D4BAB
:1011E00000011C18185863681A4001F10C0300EB49
:1011F00083035A600269022303FA01F122EA010221
:101200000261C3681943C160002010BD4FF0FF3078
:10121000FBE700BF002800080001024B1B58586A7A
:10122000704700BF00280008034B00011A581368DC
:1012300043F00103136070470028000801282DE9DE
:10124000F84305460F4630D8194E1A49040106EBFB
:10125000040841F8302098F80C9001EBC001484692
:101260004B60D8F80810FFF765FF3659D8F80430FE
:101270000024346048467460F362FFF74BFF98F82F
:101280000D20B0FBF7F00123013851B202F01F022C
:10129000B062490973619340074A284642F82130F9
:1012A000FFF7C2FF2046BDE8F8834FF0FF30FAE7B2
:1012B00000280008480B002000E100E00020FFF7B4
:1012C0005DBF0120FFF75ABF82680168531C83602D
:1012D0004368013B1340C85C7047F8B505460F46AC
:1012E000164614461CB1AA68EB689A4201D1301B1D
:1012F000F8BD2846FFF7E8FF013C07F8010BF1E7CE
:10130000C268436830B58468121B9A4208D0C2682C
:101310000468013B1340551CC560E154002030BDFA
:101320004FF0FF30FBE7704730B50F4885B000F055
:1013300025FA0E49684600F0F7F870B90C4C0D4DCF
:10134000684600F02AF9011E03DA284600F016FA72
:10135000F6E7204600F09EF9F2E7074800F00EFAA3
:10136000012005B030BD00BF202800087828000803
:101370006E2800084F2800083B280008FFF7A4BC8F
:1013800070B504460D46FFF7A3F9236806463BB93E
:101390004FF0FF332360FFF7A3F90125284670BD06
:1013A000C5B10E4B1D6802212846FEF775FF236864
:1013B00001330AD105F1080323600023AB603046F6
:1013C000FFF78EF9FFF714F8E7E729462046FFF705
:1013D000C9FDF4E7FFF784F9E0E700BF90020020C1
:1013E00070B50446FFF774F9256806461DB9BDE8D7
:1013F0007040FFF775B96B1C02D100232360F6E73C
:1014000028460A2150F808392360FEF745FF236873
:1014100013B94FF0FF33236015F8034C3046FFF744
:101420005FF92046BDE87040FEF776BF0F4BD3F85A
:10143000882042F4700210B5C3F888200C4A9A60E4
:101440000C4C102283F822200021DA776018013139
:101450005B2980F80023F9D11A6942F010021A6161
:101460005A6942F400725A6110BD00BF00ED00E0FD
:101470000000000800E100E038B5FFF729F91C4D35
:101480000023AB61044600F09BF842F20153AB60CD
:101490002B469A6802F00C02042AFAD1154A40F24F
:1014A000047111604FF480721A60B9221A601A68D0
:1014B0009107FCD54FF04062C3F888200E4ADA60ED
:1014C0001A6842F080721A601A689201FCD59A6814
:1014D00042F003029A609A6802F00C020C2AFAD1D8
:1014E00000F07AF82046BDE83840FFF7F9B800BFB1
:1014F00000100240002002405114000138B504469B
:101500000020FFF789FEA3680133054604DB6FF076
:101510000103C4E9023038BD6068FFF793FAE3685D
:10152000ED1AA560F7E7000037B5044603C94FF090
:10153000FF32002384E80300C4E902230121FFF7FE
:10154000B3F9014620B16FF00205284603B030BD63
:101550000094064B60680322FFF7DEF90546002879
:10156000F1D16068FFF76EFAEFE700BFFD140008E5
:101570008368023310B504460ED04068FFF756FA70
:101580002068FFF76DFA0A20002100F035F8206886
:10159000BDE81040FFF76DBA10BD10B50446FFF767
:1015A000E7FF00214CF2503000F026F8A068002838
:1015B000A1BF642358434FF41273B0FBF3F010BD86
:1015C000044B1A6842F480721A601A685205FCD5FE
:1015D000704700BF001002407047FFF701BF38B5E9
:1015E00004460020FFF718FE05460020FFF714FE12
:1015F000401BA042F9D338BD30B587B004460D4634
:10160000FFF771F848B11DB10E490320FFF74CFCFC
:101610002046FFF7E4FF07B030BD0B4B0090CDE94B
:101620000200012168460493CDF814D0FFF7A8FE0C
:10163000214601A82A46FFF7E9FB01216846FFF78A
:101640009FFEE8E768270008DB15000870B50D4E1F
:101650000D4CA41BA4100025A54209D10B4E0C4C27
:10166000FEF7A6FDA41BA4100025A54205D170BD60
:1016700056F8253098470135EEE756F8253098475B
:101680000135F2E718290008182900081829000870
:10169000182900080FB40A4B13B51C6824B1A369BC
:1016A00013B9204600F022FA05AB049AA168019311
:1016B000204600F0E1FB02B0BDE8104004B07047E6
:1016C0002002002070B50E46054618B183690BB99B
:1016D00000F00CFAAB69AC6813B9284600F006FAC2
:1016E000234B9C4217D16C68A3891B071DD5236926
:1016F000DBB1013EA36816F8011F013BA360E9B905
:10170000002B2EDA22460A21284600F03FF801304D
:1017100011D00A2011E0174B9C4201D1AC68E3E7DD
:10172000154B9C4208BFEC68DEE72146284600F0D6
:101730007FF80028DDD04FF0FF3070BD002B04DAB9
:10174000A2699A4206DC0A2904D023685A1C226046
:101750001970CFE72246284600F018F80130C9D1A9
:10176000E9E723680A205A1C22601870E5E700BFE9
:10177000A4280008C428000884280008024B014659
:101780001868FFF79FBF00BF20020020F8B50E4683
:101790001446054618B183690BB900F0A7F9214B2F
:1017A0009C422AD16C68A369A360A3891A072ED52D
:1017B000236963B323692068C01A6369F6B2834260
:1017C000374604DC2146284600F026F928BBA368EA
:1017D000013BA36023685A1C22601E7063690130BC
:1017E000834204D0A389DB0719D50A2E17D12146DD
:1017F000284600F011F990B10FE00B4B9C4201D14B
:10180000AC68D0E7094B9C4208BFEC68CBE72146A7
:10181000284600F00DF80028CCD04FF0FF373846AE
:10182000F8BD00BFA4280008C428000884280008C8
:10183000324B70B51D6806460C4625B1AB6913B92D
:10184000284600F053F92E4B9C420FD16C68B4F936
:101850000C309AB215072CD4D00611D4092232606C
:1018600043F04003A3814FF0FF303EE0254B9C4204
:1018700001D1AC68EBE7244B9C4208BFEC68E6E77B
:10188000510712D5616B41B104F14403994202D072
:10189000304600F021FA00236363A38923F0240378
:1018A000A3810023636023692360A38943F00803B5
:1018B000A38123694BB9A38903F42073B3F5007F97
:1018C00003D02146304600F0BFF9A28912F001038F
:1018D0000CD00023A36063695B42A361236953B901
:1018E000B4F90C3013F08000BAD170BD920758BF24
:1018F0006369A360F2E70020F7E700BF2002002041
:10190000A4280008C4280008842800088A892DE932
:10191000F041054610070C4658D44B68002B05DCF7
:101920000B6C002B02DC0020BDE8F081E66A002E83
:10193000F9D0002312F480522F68216A2B6032D034
:10194000606DA3895A0705D56368C01A636B0BB134
:10195000236CC01A00230246E66A216A2846B04773
:10196000431CA38906D129681D2948D8294ACA40A1
:10197000D60744D500226260D9042269226004D5CA
:10198000421C01D12B6803B96065616B2F6000298F
:10199000C9D004F14403994202D0284600F09CF9D2
:1019A00000206063C0E701232846B047411CC8D12E
:1019B0002B68002BC5D01D2B01D0162B01D12F6019
:1019C000B1E7A38943F04003A381ADE70F69002F7E
:1019D000A9D093070E6808BF4B690F6018BF00239A
:1019E000A6EB07088B60B8F1000F9CDD43463A4632
:1019F000216AA66A2846B047002806DCA38943F07E
:101A00004003A3814FF0FF308EE70744A8EB0008A6
:101A1000E9E700BF0100402038B50B6905460C46D8
:101A2000DBB118B183690BB900F060F80C4B9C4234
:101A300009D16C68B4F90C307BB121462846BDE869
:101A40003840FFF763BF074B9C4201D1AC68F1E718
:101A5000054B9C4208BFEC68ECE7002038BD00BF96
:101A6000A4280008C428000884280008002310B512
:101A70000446C0E90033836081814366C281C0E9C6
:101A800004338361194608225C3000F01DF9054BD0
:101A90006362054BA362054BE362054B246223633B
:101AA00010BD00BFB5230008D72300080F2400088D
:101AB00033240008014900F085B800BF191A000856
:101AC00070B54A1E682555430E4605F1740100F0B5
:101AD00051F9044640B10021C0E900160C30A06065
:101AE00005F1680200F0F0F8204670BD836910B57A
:101AF000044633BBC0E912330365124B124A1B681C
:101B00008262984204BF0123836100F01FF8606085
:101B1000204600F01BF8A060204600F017F80022D5
:101B2000E06004216068FFF7A1FF01220921A0689D
:101B3000FFF79CFF02221221E068FFF797FF0123C5
:101B4000A36110BD80280008B51A0008F8B51B4B2A
:101B50001E68B369074613B93046FFF7C7FF48361A
:101B6000D6E90134013B03D5336833B13668F7E772
:101B7000B4F90C506DB16834F4E704213846FFF72E
:101B80009FFF30600028F1D10C233B6004462046C3
:101B9000F8BD0B4B6566C4E90055A560C4E9033583
:101BA000C4E905550822294604F15C0000F08CF8D0
:101BB000C4E90D55C4E91255E9E700BF80280008C3
:101BC0000100FFFF2DE9F8438046894600F14804F3
:101BD000002614B93046BDE8F883D4E90175013F09
:101BE00001D52468F5E7AB89012B07D9B5F90E308B
:101BF000013303D029464046C84706436835EEE71F
:101C000070B50E46B1F90E10002996B014461D4667
:101C100007DA00232B60B3891A0610D44FF48063CF
:101C20000EE06A46FEF7F8FA0028F2DB019A02F4A9
:101C30007042A2F500535A425A412A60EEE740230F
:101C40000020236016B070BD8B8973B59D070646D2
:101C50000C4607D504F14703236023610123636128
:101C600002B070BD01AB6A46FFF7CAFF0099054696
:101C7000304600F07FF848B9B4F90C309A05EFD43B
:101C800023F0030343F00203A381E3E70D4BB362A8
:101C9000A389206043F08003A381009B6361019BC3
:101CA00020615BB1B4F90E103046FEF7BAFA28B1E4
:101CB000A38923F0030343F00103A381A3891D43F8
:101CC000A581CDE7B51A000802440346934200D12E
:101CD000704703F8011BF9E738B50546002945D0E0
:101CE00051F8043C0C1F002BB8BFE41800F0F8FBBF
:101CF0001F4A1368104633B9636014602846BDE874
:101D0000384000F0EEBBA3420CD921686218934220
:101D100004BF1A685B68636004BF521822600460E5
:101D2000ECE713465A680AB1A242FAD91968581862
:101D3000A0420BD120680144581882421960DDD1BD
:101D4000106852685A6001441960D7E702D90C2321
:101D50002B60D3E7206821188A4204BF11685268BB
:101D6000626004BF091821605C60C7E738BD00BF2E
:101D7000580B002070B5CD1C25F0030508350C2D3F
:101D800038BF0C25002D064601DBA94203D90C23E0
:101D90003360002070BD00F0A3FB214A1468214687
:101DA00091B9204C23681BB93046FEF705FA206034
:101DB00029463046FEF700FA431C24D10C23336039
:101DC000304600F08EFBE4E70B685B1B18D40B2B4E
:101DD0000FD90B60CD50CC18304600F082FB04F1D7
:101DE0000B00231D20F00700C31AD3D05A42E25043
:101DF000D0E78C424B6816BF636013600C46EBE77C
:101E00000C464968CCE7C41C24F00304A04205D06A
:101E1000211A3046FEF7D0F90130CFD02560DBE73C
:101E2000580B00205C0B00209368013B002B10B482
:101E3000936007DA9469A34201DB0A2902D110BC3E
:101E4000FFF7A4BC1368581C10601970084610BC3A
:101E50007047F8B506460F461446D518AC4201D176
:101E6000002007E03A4614F8011B3046FFF7DCFF7C
:101E7000431CF3D1F8BD00002DE9F04F0C469DB096
:101E800017461D46064618B183690BB9FFF72EFEAB
:101E90007C4B9C4258D17468A38918075ED523698E
:101EA000002B5BD00023099320238DF829303023A9
:101EB0008DF82A3003954FF0010BB846454615F8CA
:101EC000013B0BB1252B54D1B8EB070A0BD053467D
:101ED0003A4621463046FFF7BCFF013000F0C28091
:101EE000099B5344099398F80030002B00F0BA8006
:101EF00000234FF0FF32CDE90523049307938DF8BB
:101F000053301A93A846052218F8011B5E4800F0CA
:101F100097FA049B78BBD90644BF20228DF8532042
:101F20001A0744BF2B228DF853202A782A2A2AD058
:101F3000079AA84600200A25414611F8013B303B8C
:101F4000092B69D960B324E0504B9C4201D1B4689D
:101F5000A2E74F4B9C4208BFF4689DE721463046FC
:101F6000FFF766FC00289DD04FF0FF301DB0BDE8A4
:101F7000F08FA846A2E7444A801A0BFA00F01843F3
:101F800004904546BEE7039A111D12680391002A8A
:101F900001DB079204E0524243F0020307920493EC
:101FA00098F800302E2B0ED198F801302A2B38D11A
:101FB000039B1A1D1B680392002BB8BF4FF0FF3321
:101FC00008F102080593334D98F8001003222846C3
:101FD00000F036FA40B14023401B03FA00F0049BA6
:101FE000034308F10108049398F800102A488DF87B
:101FF0002810062208F1010700F022FA002837D045
:10200000264B1BBB039B073323F0070308330393C3
:10201000099B4B44099350E705FB02320120884697
:102020008AE7002308F10108059319460A2540466E
:1020300010F8012B303A092A03D9002BC3D005919F
:10204000C1E705FB012101238046F0E703AB0093C4
:102050002246134B04A93046AFF30080B0F1FF3F96
:102060008146D5D1A3895B063FF57EAF09987DE710
:1020700003AB009322460A4B04A9304600F088F8CF
:10208000ECE700BFA4280008E4280008C4280008E2
:1020900084280008EA280008EE2800080000000054
:1020A000531E00082DE9F04791461F468A680B69C8
:1020B000DDF820809342B8BF1346C9F8003091F88C
:1020C000432006460C4612B10133C9F8003023689C
:1020D000990642BFD9F800300233C9F800302568AC
:1020E00015F0060507D104F1190AE368D9F80020B4
:1020F0009B1AAB4228DC94F843302268003318BFA7
:10210000012392062DD404F1430239463046C047DC
:10211000013020D02368E568D9F8002003F00603D9
:10212000042B08BFAD1AA36822690CBF25EAE57528
:1021300000259342C4BF9B1AED184FF000091A34D2
:102140004D451AD1002008E0012352463946304659
:10215000C047013003D14FF0FF30BDE8F0870135B3
:10216000C3E7E1185A1C302081F84300224494F858
:10217000451082F843100233C5E701232246394651
:102180003046C0470130E6D009F10109D8E7000028
:102190002DE9F04301F1430C0C46097E85B06E2910
:1021A0001746064698460C9A00F0B38022D8632959
:1021B00036D00AD8002900F0B980582900F0838071
:1021C00004F1420584F8421032E0642901D0692903
:1021D000F6D120681368050603F104012AD51B68AF
:1021E0001160002B03DA2D225B4284F843206F48F4
:1021F0000A2239E0732900F09D8008D86F2920D089
:102200007029DDD1236843F02003236003E07529A2
:1022100017D07829D4D1782384F84530644855E024
:102220001368191D1B68116004F1420584F84230DF
:1022300001238CE01B68116010F0400F18BF1BB227
:10224000CFE713682568181D1060280601D51B68A4
:1022500002E06806FBD51B8854486F2914BF0A2288
:102260000822002184F843106568A560002DC0F2A3
:102270009580216821F004012160002B3DD1002DC3
:1022800040F08E806546082A0BD12368DB0708D50D
:10229000236962689A42DEBF302305F8013C05F1EC
:1022A000FF35ACEB05032361CDF800803B4603AA64
:1022B00021463046FFF7F6FE01304DD14FF0FF309A
:1022C00005B0BDE8F083394884F8451013682168EB
:1022D0001D1D1B6815600A060BD5CA0744BF41F0D7
:1022E000200121601BB9226822F020022260102206
:1022F000B7E74D0648BF9BB2EFE76546B3FBF2F187
:1023000002FB1133C35C05F8013D0B460029F5D1F2
:10231000B9E7136825686169181D106028061B68F5
:1023200001D5196002E06A06FBD5198000232361FC
:102330006546B9E71368191D11601D6862680021C0
:10234000284600F07DF808B1401B60606368236197
:10235000002384F84330A7E723692A4639463046EC
:10236000C0470130AAD023689B0713D4E068039BC1
:102370009842B8BF1846A3E701234A46394630467B
:10238000C04701309AD00135E368039A9B1AAB42EB
:10239000F2DCEBE7002504F11909F5E7002BACD1DD
:1023A000037884F8423004F142056CE7F528000810
:1023B0000629000810B50C46B1F90E10FDF71AFFFA
:1023C0000028ABBF636DA3891B1823F48053ACBFF7
:1023D0006365A38110BD2DE9F0411F468B89DB05A4
:1023E00005460C46164605D502230022B1F90E100B
:1023F000FDF70DFFA389B4F90E1023F48053A381D8
:1024000032463B462846BDE8F041FDF7F7BE10B521
:102410000C46B1F90E10FDF7FAFE431CA38915BF57
:10242000606523F4805343F48053A38118BFA381D4
:1024300010BDB1F90E10FDF7E5BE00000000000070
:1024400001F0FF01102A2BDB10F0070F08D010F865
:10245000013B013A8B422DD010F0070F42B3F6D169
:10246000F0B441EA012141EA014122F007047FF082
:1024700000070023F0E80256083C85EA010586EAD9
:10248000010685FA47F5A3FA87F586FA47F6A5FA15
:1024900087F68EB9EED1F0BC01F0FF0102F0070221
:1024A00032B110F8013B013A83EA010313B1F8D1CC
:1024B0000020704701387047002D06BF35460338AD
:1024C000073815F0010F07D1013015F4807F02BFE6
:1024D000013015F4C03F0130F0BC0138704700BF37
:1024E00070477047425553204641554C542048414F
:1024F0004E444C4552004445425547204D4F4E20D6
:1025000048414E444C45520044554D4D5920484198
:102510004E444C4552000A49535220737461636B18
:10252000206F766572666C6F7765640053746163C3
:102530006B20706F696E74657220636F7272757054
:102540007465642C20726573657420746F20746FD9
:1025500070206F6620737461636B000A436F6E7442
:10256000657874206265666F726520686172646662
:1025700061756C743A0020202072303A2030782542
:1025800030386C780A20202072313A20307825309B
:10259000386C780A20202072323A20307825303882
:1025A0006C780A20202072333A2030782530386C3D
:1025B000780A0020207231323A2030782530386C89
:1025C000780A2020206C723A2030782530386C78D8
:1025D0000A20202070633A2030782530386C780A41
:1025E00020207073723A2030782530386C780A0ACF
:1025F000004653522F4641523A0020434653523A26
:102600002030782530386C780A0020484653523AFA
:102610002030782530386C780A0020444653523AEE
:102620002030782530386C780A0020414653523AE1
:102630002030782530386C780A0020424641523AE2
:102640002030782530386C780A004D4D4641523A9A
:102650002030782530386C780A004D697363004566
:1026600058435F5245543A2030782530386C780A08
:1026700000417474656D7074696E6720746F2072A8
:1026800065636F6E737472756374207374617465BF
:1026900020666F7220646562756767696E672E2EAB
:1026A0002E00496E204744423A0A20207365742068
:1026B0002470633D3078256C780A20206672616D45
:1026C0006520300A202062740A000A4953522073A0
:1026D0007461636B206F766572666C6F77656420DA
:1026E0006279206174206C656173742025642062B6
:1026F000797465732E0A0048415244204641554C76
:10270000542048414E444C4552004D454D204D41CA
:102710004E4147452048414E444C4552004E4D499C
:102720002048414E444C45520055534147452046B0
:1027300041554C542048414E444C45520000000045
:102740000048004000000400090C0048080C004844
:10275000070700270050004000001000020C00484E
:102760000C080048080800354641494C45442041C2
:102770005353455254494F4E2E0025700A002A2AC1
:102780002A2052494F54206B65726E656C2070612F
:102790006E69633A0A25730A0A002A2A2A206861A8
:1027A0006C7465642E0A0A006D61696E28293A20EE
:1027B000546869732069732052494F542120285668
:1027C000657273696F6E3A20554E4B4E4F574E20CF
:1027D000286275696C646469723A202F686F6D6550
:1027E0002F76616772616E742F52494F5429290AFE
:1027F0000069646C65006D61696E00020200000092
:1028000000000040FFFFFFFF01000000001C00006F
:10281000000C0040FFFFFFFF080000000032000036
:1028200053524630342072616E67652066696E646B
:102830006572206578616D706C65004572726F72AB
:102840003A20696E697469616C697A696E670045DE
:1028500072726F723A206E6F2076616C69642064C8
:1028600061746120617661696C61626C6500443AF3
:10287000202564206D6D0A000D14004809100048E1
:102880002402002000000000000000000000000002
:102890000000000000000000000000000000000038
:1028A0000000000000000000000000000000000028
:1028B0000000000000000000000000000000000018
:1028C0000000000000000000000000000000000008
:1028D00000000000000000000000000000000000F8
:1028E00000000000232D302B2000686C4C00656632
:1028F0006745464700303132333435363738394151
:102900004243444546003031323334353637383966
:0829100061626364656600006A
:10291800640B00206003002040000000000000005D
:102928000000000000000000F1270008F62700085A
:102938002402002000000000A4280008C428000881
:1029480084280008000000000000000000000000CB
:10295800000000000000000000000000000000006F
:10296800000000000000000000000000000000005F
:10297800000000000000000000000000000000004F
:10298800000000000000000000000000000000003F
:082998000000000028210000EE
:04000005080004E10A
:00000001FF
